{
  "abi": [
    {
      "inputs": [
        {
          "internalType": "string",
          "name": "name",
          "type": "string"
        },
        {
          "internalType": "string",
          "name": "symbol",
          "type": "string"
        },
        {
          "internalType": "address payable",
          "name": "admin",
          "type": "address"
        }
      ],
      "payable": false,
      "stateMutability": "nonpayable",
      "type": "constructor"
    },
    {
      "constant": true,
      "inputs": [],
      "name": "minter_address",
      "outputs": [
        {
          "internalType": "address",
          "name": "",
          "type": "address"
        }
      ],
      "payable": false,
      "stateMutability": "view",
      "type": "function"
    },
    {
      "constant": true,
      "inputs": [],
      "name": "token_address",
      "outputs": [
        {
          "internalType": "address",
          "name": "",
          "type": "address"
        }
      ],
      "payable": false,
      "stateMutability": "view",
      "type": "function"
    }
  ],
  "bytecode": "608060405234801561001057600080fd5b50604051611d20380380611d208339818101604052606081101561003357600080fd5b810190808051604051939291908464010000000082111561005357600080fd5b90830190602082018581111561006857600080fd5b825164010000000081118282018810171561008257600080fd5b82525081516020918201929091019080838360005b838110156100af578181015183820152602001610097565b50505050905090810190601f1680156100dc5780820380516001836020036101000a031916815260200191505b50604052602001805160405193929190846401000000008211156100ff57600080fd5b90830190602082018581111561011457600080fd5b825164010000000081118282018810171561012e57600080fd5b82525081516020918201929091019080838360005b8381101561015b578181015183820152602001610143565b50505050905090810190601f1680156101885780820380516001836020036101000a031916815260200191505b506040819052602091909101519250600091508490849083906101aa906103da565b60408101829052606080825284519082015283518190602080830191608084019188019080838360005b838110156101ec5781810151838201526020016101d4565b50505050905090810190601f1680156102195780820380516001836020036101000a031916815260200191505b50838103825285518152855160209182019187019080838360005b8381101561024c578181015183820152602001610234565b50505050905090810190601f1680156102795780820380516001836020036101000a031916815260200191505b5095505050505050604051809103906000f08015801561029d573d6000803e3d6000fd5b50600180546001600160a01b0319166001600160a01b038316179055604051909150600090829084906102cf906103e7565b6001600160a01b03928316815291166020820152604080519182900301906000f080158015610302573d6000803e3d6000fd5b50600080546001600160a01b0319166001600160a01b038381169190911780835560408051634c1d96ab60e11b81529183166004830152519394509085169263983b2d569260248084019391929182900301818387803b15801561036557600080fd5b505af1158015610379573d6000803e3d6000fd5b50505050816001600160a01b031663986502756040518163ffffffff1660e01b8152600401600060405180830381600087803b1580156103b857600080fd5b505af11580156103cc573d6000803e3d6000fd5b5050505050505050506103f4565b611319806104b483390190565b610553806117cd83390190565b60b2806104026000396000f3fe6080604052348015600f57600080fd5b506004361060325760003560e01c80638c8e8fee146037578063a315acf5146059575b600080fd5b603d605f565b604080516001600160a01b039092168252519081900360200190f35b603d606e565b6001546001600160a01b031681565b6000546001600160a01b03168156fea265627a7a7231582020dd9a432038a5c97cd138c5a6fc30a839f0c17c8cecaf669430dccd4584a19364736f6c6343000511003260806040523480156200001157600080fd5b506040516200131938038062001319833981810160405260608110156200003757600080fd5b81019080805160405193929190846401000000008211156200005857600080fd5b9083019060208201858111156200006e57600080fd5b82516401000000008111828201881017156200008957600080fd5b82525081516020918201929091019080838360005b83811015620000b85781810151838201526020016200009e565b50505050905090810190601f168015620000e65780820380516001836020036101000a031916815260200191505b50604052602001805160405193929190846401000000008211156200010a57600080fd5b9083019060208201858111156200012057600080fd5b82516401000000008111828201881017156200013b57600080fd5b82525081516020918201929091019080838360005b838110156200016a57818101518382015260200162000150565b50505050905090810190601f168015620001985780820380516001836020036101000a031916815260200191505b5060405260209081015185519093508592508491601291620001c1916003919086019062000362565b508151620001d790600490602085019062000362565b506005805460ff191660ff92909216919091179055506200020c9050620001fd62000215565b6001600160e01b036200021a16565b50505062000404565b335b90565b620002358160066200026c60201b62000c521790919060201c565b6040516001600160a01b038216907f6ae172837ea30b801fbfcdd4108aa1d5bf8ff775444fd70256b44e6bf3dfc3f690600090a250565b6200028182826001600160e01b03620002f916565b15620002d4576040805162461bcd60e51b815260206004820152601f60248201527f526f6c65733a206163636f756e7420616c72656164792068617320726f6c6500604482015290519081900360640190fd5b6001600160a01b0316600090815260209190915260409020805460ff19166001179055565b60006001600160a01b038216620003425760405162461bcd60e51b8152600401808060200182810382526022815260200180620012f76022913960400191505060405180910390fd5b506001600160a01b03166000908152602091909152604090205460ff1690565b828054600181600116156101000203166002900490600052602060002090601f016020900481019282601f10620003a557805160ff1916838001178555620003d5565b82800160010185558215620003d5579182015b82811115620003d5578251825591602001919060010190620003b8565b50620003e3929150620003e7565b5090565b6200021791905b80821115620003e35760008155600101620003ee565b610ee380620004146000396000f3fe608060405234801561001057600080fd5b50600436106100f55760003560e01c806370a0823111610097578063a457c2d711610066578063a457c2d7146102db578063a9059cbb14610307578063aa271e1a14610333578063dd62ed3e14610359576100f5565b806370a082311461027d57806395d89b41146102a3578063983b2d56146102ab57806398650275146102d3576100f5565b806323b872dd116100d357806323b872dd146101d1578063313ce56714610207578063395093511461022557806340c10f1914610251576100f5565b806306fdde03146100fa578063095ea7b31461017757806318160ddd146101b7575b600080fd5b610102610387565b6040805160208082528351818301528351919283929083019185019080838360005b8381101561013c578181015183820152602001610124565b50505050905090810190601f1680156101695780820380516001836020036101000a031916815260200191505b509250505060405180910390f35b6101a36004803603604081101561018d57600080fd5b506001600160a01b03813516906020013561041d565b604080519115158252519081900360200190f35b6101bf61043a565b60408051918252519081900360200190f35b6101a3600480360360608110156101e757600080fd5b506001600160a01b03813581169160208101359091169060400135610440565b61020f6104cd565b6040805160ff9092168252519081900360200190f35b6101a36004803603604081101561023b57600080fd5b506001600160a01b0381351690602001356104d6565b6101a36004803603604081101561026757600080fd5b506001600160a01b03813516906020013561052a565b6101bf6004803603602081101561029357600080fd5b50356001600160a01b0316610581565b61010261059c565b6102d1600480360360208110156102c157600080fd5b50356001600160a01b03166105fd565b005b6102d161064f565b6101a3600480360360408110156102f157600080fd5b506001600160a01b038135169060200135610661565b6101a36004803603604081101561031d57600080fd5b506001600160a01b0381351690602001356106cf565b6101a36004803603602081101561034957600080fd5b50356001600160a01b03166106e3565b6101bf6004803603604081101561036f57600080fd5b506001600160a01b03813581169160200135166106fc565b60038054604080516020601f60026000196101006001881615020190951694909404938401819004810282018101909252828152606093909290918301828280156104135780601f106103e857610100808354040283529160200191610413565b820191906000526020600020905b8154815290600101906020018083116103f657829003601f168201915b5050505050905090565b600061043161042a610727565b848461072b565b50600192915050565b60025490565b600061044d848484610817565b6104c384610459610727565b6104be85604051806060016040528060288152602001610df7602891396001600160a01b038a16600090815260016020526040812090610497610727565b6001600160a01b03168152602081019190915260400160002054919063ffffffff61097316565b61072b565b5060019392505050565b60055460ff1690565b60006104316104e3610727565b846104be85600160006104f4610727565b6001600160a01b03908116825260208083019390935260409182016000908120918c16815292529020549063ffffffff610a0a16565b600061053c610537610727565b6106e3565b6105775760405162461bcd60e51b8152600401808060200182810382526030815260200180610da66030913960400191505060405180910390fd5b6104318383610a6b565b6001600160a01b031660009081526020819052604090205490565b60048054604080516020601f60026000196101006001881615020190951694909404938401819004810282018101909252828152606093909290918301828280156104135780601f106103e857610100808354040283529160200191610413565b610608610537610727565b6106435760405162461bcd60e51b8152600401808060200182810382526030815260200180610da66030913960400191505060405180910390fd5b61064c81610b5b565b50565b61065f61065a610727565b610ba3565b565b600061043161066e610727565b846104be85604051806060016040528060258152602001610e8a6025913960016000610698610727565b6001600160a01b03908116825260208083019390935260409182016000908120918d1681529252902054919063ffffffff61097316565b60006104316106dc610727565b8484610817565b60006106f660068363ffffffff610beb16565b92915050565b6001600160a01b03918216600090815260016020908152604080832093909416825291909152205490565b3390565b6001600160a01b0383166107705760405162461bcd60e51b8152600401808060200182810382526024815260200180610e666024913960400191505060405180910390fd5b6001600160a01b0382166107b55760405162461bcd60e51b8152600401808060200182810382526022815260200180610d5e6022913960400191505060405180910390fd5b6001600160a01b03808416600081815260016020908152604080832094871680845294825291829020859055815185815291517f8c5be1e5ebec7d5bd14f71427d1e84f3dd0314c0f7b2291e5b200ac8c7c3b9259281900390910190a3505050565b6001600160a01b03831661085c5760405162461bcd60e51b8152600401808060200182810382526025815260200180610e416025913960400191505060405180910390fd5b6001600160a01b0382166108a15760405162461bcd60e51b8152600401808060200182810382526023815260200180610d3b6023913960400191505060405180910390fd5b6108e481604051806060016040528060268152602001610d80602691396001600160a01b038616600090815260208190526040902054919063ffffffff61097316565b6001600160a01b038085166000908152602081905260408082209390935590841681522054610919908263ffffffff610a0a16565b6001600160a01b038084166000818152602081815260409182902094909455805185815290519193928716927fddf252ad1be2c89b69c2b068fc378daa952ba7f163c4a11628f55a4df523b3ef92918290030190a3505050565b60008184841115610a025760405162461bcd60e51b81526004018080602001828103825283818151815260200191508051906020019080838360005b838110156109c75781810151838201526020016109af565b50505050905090810190601f1680156109f45780820380516001836020036101000a031916815260200191505b509250505060405180910390fd5b505050900390565b600082820183811015610a64576040805162461bcd60e51b815260206004820152601b60248201527f536166654d6174683a206164646974696f6e206f766572666c6f770000000000604482015290519081900360640190fd5b9392505050565b6001600160a01b038216610ac6576040805162461bcd60e51b815260206004820152601f60248201527f45524332303a206d696e7420746f20746865207a65726f206164647265737300604482015290519081900360640190fd5b600254610ad9908263ffffffff610a0a16565b6002556001600160a01b038216600090815260208190526040902054610b05908263ffffffff610a0a16565b6001600160a01b0383166000818152602081815260408083209490945583518581529351929391927fddf252ad1be2c89b69c2b068fc378daa952ba7f163c4a11628f55a4df523b3ef9281900390910190a35050565b610b6c60068263ffffffff610c5216565b6040516001600160a01b038216907f6ae172837ea30b801fbfcdd4108aa1d5bf8ff775444fd70256b44e6bf3dfc3f690600090a250565b610bb460068263ffffffff610cd316565b6040516001600160a01b038216907fe94479a9f7e1952cc78f2d6baab678adc1b772d936c6583def489e524cb6669290600090a250565b60006001600160a01b038216610c325760405162461bcd60e51b8152600401808060200182810382526022815260200180610e1f6022913960400191505060405180910390fd5b506001600160a01b03166000908152602091909152604090205460ff1690565b610c5c8282610beb565b15610cae576040805162461bcd60e51b815260206004820152601f60248201527f526f6c65733a206163636f756e7420616c72656164792068617320726f6c6500604482015290519081900360640190fd5b6001600160a01b0316600090815260209190915260409020805460ff19166001179055565b610cdd8282610beb565b610d185760405162461bcd60e51b8152600401808060200182810382526021815260200180610dd66021913960400191505060405180910390fd5b6001600160a01b0316600090815260209190915260409020805460ff1916905556fe45524332303a207472616e7366657220746f20746865207a65726f206164647265737345524332303a20617070726f766520746f20746865207a65726f206164647265737345524332303a207472616e7366657220616d6f756e7420657863656564732062616c616e63654d696e746572526f6c653a2063616c6c657220646f6573206e6f74206861766520746865204d696e74657220726f6c65526f6c65733a206163636f756e7420646f6573206e6f74206861766520726f6c6545524332303a207472616e7366657220616d6f756e74206578636565647320616c6c6f77616e6365526f6c65733a206163636f756e7420697320746865207a65726f206164647265737345524332303a207472616e736665722066726f6d20746865207a65726f206164647265737345524332303a20617070726f76652066726f6d20746865207a65726f206164647265737345524332303a2064656372656173656420616c6c6f77616e63652062656c6f77207a65726fa265627a7a72315820beb534ac73ea7123e75982a6df68aff05e86032d21f72d4b99c1c72ab58279a164736f6c63430005110032526f6c65733a206163636f756e7420697320746865207a65726f2061646472657373608060405234801561001057600080fd5b506040516105533803806105538339818101604052604081101561003357600080fd5b508051602090910151600080546001600160a01b039384166001600160a01b031991821617909155600380549390921692169190911790556104d98061007a6000396000f3fe6080604052600436106100555760003560e01c80631249c58b1461005757806340eedabb1461005f5780634e71d92d14610090578063d826f88f146100a5578063fc0c546a146100ba578063fde625e6146100cf575b005b6100556100f6565b34801561006b57600080fd5b50610074610381565b604080516001600160a01b039092168252519081900360200190f35b34801561009c57600080fd5b50610055610390565b3480156100b157600080fd5b50610055610422565b3480156100c657600080fd5b5061007461048f565b3480156100db57600080fd5b506100e461049e565b60408051918252519081900360200190f35b600154341161013c576040805162461bcd60e51b815260206004820152600d60248201526c4d75737420706179206d6f726560981b604482015290519081900360640190fd5b60008054604080516340c10f1960e01b8152336004820152670de0b6b3a7640000602482015290516001600160a01b03909216926340c10f19926044808401936020939083900390910190829087803b15801561019857600080fd5b505af11580156101ac573d6000803e3d6000fd5b505050506040513d60208110156101c257600080fd5b505034600155600054600254604080516370a0823160e01b81526001600160a01b039283166004820152905191909216916370a08231916024808301926020929190829003018186803b15801561021857600080fd5b505afa15801561022c573d6000803e3d6000fd5b505050506040513d602081101561024257600080fd5b5051600054604080516370a0823160e01b815233600482015290516001600160a01b03909216916370a0823191602480820192602092909190829003018186803b15801561028f57600080fd5b505afa1580156102a3573d6000803e3d6000fd5b505050506040513d60208110156102b957600080fd5b5051111561037f57600280546001600160a01b03191633908117909155600054604080516370a0823160e01b81526004810184905290517f67c9a9e267dea2a0d7aa75b534fb824a6be722311a388432892d1ffc92e9ab44926001600160a01b0316916370a08231916024808301926020929190829003018186803b15801561034157600080fd5b505afa158015610355573d6000803e3d6000fd5b505050506040513d602081101561036b57600080fd5b505160408051918252519081900360200190a25b565b6002546001600160a01b031690565b6003546001600160a01b031633146103e6576040805162461bcd60e51b81526020600482015260146024820152734f6e6c792061646d696e2063616e20636c61696d60601b604482015290519081900360640190fd5b6003546040516001600160a01b03909116904780156108fc02916000818181858888f1935050505015801561041f573d6000803e3d6000fd5b50565b6003546001600160a01b03163314610478576040805162461bcd60e51b815260206004820152601460248201527313db9b1e4818591b5a5b8818d85b881c995cd95d60621b604482015290519081900360640190fd5b6000600155600280546001600160a01b0319169055565b6000546001600160a01b031690565b6001549056fea265627a7a72315820559beb419f9467b22a4e2ab124b20e8eed80961a205a8946d65372fc9987255764736f6c63430005110032",
  "bytecodeSha1": "47682e807865f1a08a4e36815f6184a56710d33c",
  "compiler": {
    "evm_version": "istanbul",
    "optimizer": {
      "enabled": true,
      "runs": 200
    },
    "version": "0.5.17+commit.d19bba13"
  },
  "contractName": "HuskyTokenDeployer",
  "language": "Solidity",
  "natspec": {
    "methods": {}
  },
  "opcodes": "PUSH1 0x80 PUSH1 0x40 MSTORE CALLVALUE DUP1 ISZERO PUSH1 0xF JUMPI PUSH1 0x0 DUP1 REVERT JUMPDEST POP PUSH1 0x4 CALLDATASIZE LT PUSH1 0x32 JUMPI PUSH1 0x0 CALLDATALOAD PUSH1 0xE0 SHR DUP1 PUSH4 0x8C8E8FEE EQ PUSH1 0x37 JUMPI DUP1 PUSH4 0xA315ACF5 EQ PUSH1 0x59 JUMPI JUMPDEST PUSH1 0x0 DUP1 REVERT JUMPDEST PUSH1 0x3D PUSH1 0x5F JUMP JUMPDEST PUSH1 0x40 DUP1 MLOAD PUSH1 0x1 PUSH1 0x1 PUSH1 0xA0 SHL SUB SWAP1 SWAP3 AND DUP3 MSTORE MLOAD SWAP1 DUP2 SWAP1 SUB PUSH1 0x20 ADD SWAP1 RETURN JUMPDEST PUSH1 0x3D PUSH1 0x6E JUMP JUMPDEST PUSH1 0x1 SLOAD PUSH1 0x1 PUSH1 0x1 PUSH1 0xA0 SHL SUB AND DUP2 JUMP JUMPDEST PUSH1 0x0 SLOAD PUSH1 0x1 PUSH1 0x1 PUSH1 0xA0 SHL SUB AND DUP2 JUMP INVALID LOG2 PUSH6 0x627A7A723158 KECCAK256 KECCAK256 0xDD SWAP11 NUMBER KECCAK256 CODESIZE 0xA5 0xC9 PUSH29 0xD138C5A6FC30A839F0C17C8CECAF669430DCCD4584A19364736F6C6343 STOP SDIV GT STOP ORIGIN ",
  "sha1": "2aac39bfa2a8410bb647bc743edafbcbb4e56e73",
  "source": "pragma solidity ^0.5.0;\n\nimport './Husky.sol';\nimport \"OpenZeppelin/openzeppelin-contracts@2.5.0/contracts/token/ERC20/ERC20.sol\";\nimport \"OpenZeppelin/openzeppelin-contracts@2.5.0/contracts/crowdsale/Crowdsale.sol\";\n\ncontract HuskyTokenMinter {\n    HuskyToken private husky_token;\n    uint256 private stored_last_price;\n    address private stored_leader;\n    address payable private admin;\n\n    event NewLeader(address indexed _from, uint _value);\n\n    constructor(HuskyToken _token, address payable _admin) public\n    {\n        husky_token = _token;\n        admin = _admin;\n    }\n\n\n    function mint() public payable \n    {\n        require(msg.value > stored_last_price, \"Must pay more\");\n        husky_token.mint(msg.sender, 1e18);\n        stored_last_price = msg.value ;\n\n        if(husky_token.balanceOf(msg.sender) > husky_token.balanceOf(stored_leader)) {\n            stored_leader = msg.sender;\n             emit NewLeader(msg.sender, husky_token.balanceOf(msg.sender));\n\t    }\n    }\n\n    function leader() public view returns (address) {\n    \treturn stored_leader;\n    }\n\n    function last_price() public view returns (uint256) {\n    \treturn stored_last_price;\n    }\n\n    function token() public view returns (address) {\n\t    return address(husky_token);\n    }\n\n    /* admin fuctions */\n    function claim() public {\n    \trequire(msg.sender == admin, \"Only admin can claim\");\n\t    admin.transfer(address(this).balance);\n    }\n\n    function reset() public {\n    \trequire(msg.sender == admin, \"Only admin can reset\");\n        stored_last_price = 0;\n        stored_leader = address(0);\n    }\n\n    function() external payable {}\n}\n\ncontract HuskyTokenDeployer {\n\n    address public minter_address;\n    address public token_address;\n\n    constructor(\n        string memory name,\n        string memory symbol,\n        address payable admin // this address will receive all Ether raised by the sale\n    )\n        public\n    {\n        // create the token and keep its address handy\n        HuskyToken husky_token = new HuskyToken(name, symbol, 0);\n        token_address = address(husky_token);\n\n        // create the token and tell it about the token\n        HuskyTokenMinter husky_minter = new HuskyTokenMinter(husky_token, admin);\n        minter_address = address(husky_minter);\n\n\t    // Add Minter as husky token minter, then renounce deployer's minter role\n        husky_token.addMinter(minter_address);\n        husky_token.renounceMinter();\n    }\n}\n\n",
  "sourcePath": "contracts/HuskyTokenMinter.sol",
  "type": "contract"
}